{
  "contractName": "Kyc",
  "abi": [
    {
      "constant": true,
      "inputs": [],
      "name": "id",
      "outputs": [
        {
          "name": "",
          "type": "uint256"
        }
      ],
      "payable": false,
      "stateMutability": "view",
      "type": "function"
    },
    {
      "constant": false,
      "inputs": [
        {
          "name": "docHash",
          "type": "string"
        }
      ],
      "name": "storeDocument",
      "outputs": [],
      "payable": false,
      "stateMutability": "nonpayable",
      "type": "function"
    },
    {
      "constant": true,
      "inputs": [
        {
          "name": "id",
          "type": "uint256"
        },
        {
          "name": "hashToVerify",
          "type": "string"
        }
      ],
      "name": "verifyDocument",
      "outputs": [
        {
          "name": "",
          "type": "bool"
        }
      ],
      "payable": false,
      "stateMutability": "view",
      "type": "function"
    },
    {
      "constant": true,
      "inputs": [],
      "name": "getId",
      "outputs": [
        {
          "name": "",
          "type": "uint256"
        }
      ],
      "payable": false,
      "stateMutability": "view",
      "type": "function"
    }
  ],
  "bytecode": "0x6080604052600060015534801561001557600080fd5b5061045d806100256000396000f3fe608060405234801561001057600080fd5b506004361061004c5760003560e01c80635d1ca63114610051578063af640d0f1461006f578063b644f3501461008d578063d40a2c5d14610148575b600080fd5b610059610225565b6040518082815260200191505060405180910390f35b61007761022f565b6040518082815260200191505060405180910390f35b610146600480360360208110156100a357600080fd5b81019080803590602001906401000000008111156100c057600080fd5b8201836020820111156100d257600080fd5b803590602001918460018302840111640100000000831117156100f457600080fd5b91908080601f016020809104026020016040519081016040528093929190818152602001838380828437600081840152601f19601f820116905080830192505050505050509192919290505050610235565b005b61020b6004803603604081101561015e57600080fd5b81019080803590602001909291908035906020019064010000000081111561018557600080fd5b82018360208201111561019757600080fd5b803590602001918460018302840111640100000000831117156101b957600080fd5b91908080601f016020809104026020016040519081016040528093929190818152602001838380828437600081840152601f19601f820116905080830192505050505050509192919290505050610273565b604051808215151515815260200191505060405180910390f35b6000600154905090565b60015481565b806000806001548152602001908152602001600020908051906020019061025d92919061038c565b5060016000815480929190600101919050555050565b6000816040516020018082805190602001908083835b602083106102ac5780518252602082019150602081019050602083039250610289565b6001836020036101000a0380198251168184511680821785525050505050509050019150506040516020818303038152906040528051906020012060008085815260200190815260200160002060405160200180828054600181600116156101000203166002900480156103575780601f10610335576101008083540402835291820191610357565b820191906000526020600020905b815481529060010190602001808311610343575b50509150506040516020818303038152906040528051906020012014156103815760019050610386565b600090505b92915050565b828054600181600116156101000203166002900490600052602060002090601f016020900481019282601f106103cd57805160ff19168380011785556103fb565b828001600101855582156103fb579182015b828111156103fa5782518255916020019190600101906103df565b5b509050610408919061040c565b5090565b61042e91905b8082111561042a576000816000905550600101610412565b5090565b9056fea165627a7a723058206e2f7b1cf67bdd2a8024fd4a8ce39cde2e768e1c30cfd9ec6ba65f0bda67fcc80029",
  "source": "pragma solidity >=0.4.25 <0.7.0;\n\n\ncontract Kyc {\n\n    mapping(uint => string) documents;\n    uint public id = 0; \n\n    function storeDocument(string memory docHash) public {\n\n        documents[id] = docHash;\n        id++;\n    }\n\n    function verifyDocument(uint id, string memory hashToVerify) view public returns (bool){\n        if(keccak256(abi.encodePacked(documents[id])) == keccak256(abi.encodePacked(hashToVerify))) {\n            return true;\n        }\n        else{\n            return false;\n        }\n     }\n\n     function getId() view public returns (uint) {\n         return id;\n     }\n}\n",
  "sourcePath": "/home/tushar/Downloads/projects/Ethereum Practice/Bank_KYC/contracts/Kyc.sol",
  "compiler": {
    "name": "solc",
    "version": "0.5.8+commit.23d335f2.Emscripten.clang"
  },
  "schemaVersion": "3.0.16",
  "updatedAt": "2020-04-18T16:03:46.239Z",
  "devdoc": {
    "methods": {}
  },
  "userdoc": {
    "methods": {}
  }
}