{
  "contractName": "Kyc",
  "abi": [
    {
      "constant": false,
      "inputs": [
        {
          "name": "id",
          "type": "uint256"
        },
        {
          "name": "docHash",
          "type": "string"
        }
      ],
      "name": "storeDocument",
      "outputs": [],
      "payable": false,
      "stateMutability": "nonpayable",
      "type": "function"
    },
    {
      "constant": true,
      "inputs": [
        {
          "name": "id",
          "type": "uint256"
        },
        {
          "name": "hashToVerify",
          "type": "string"
        }
      ],
      "name": "verifyDocument",
      "outputs": [
        {
          "name": "",
          "type": "bool"
        }
      ],
      "payable": false,
      "stateMutability": "view",
      "type": "function"
    }
  ],
  "bytecode": "0x608060405234801561001057600080fd5b506103f2806100206000396000f3fe608060405234801561001057600080fd5b50600436106100365760003560e01c8063bc367f951461003b578063d40a2c5d14610100575b600080fd5b6100fe6004803603604081101561005157600080fd5b81019080803590602001909291908035906020019064010000000081111561007857600080fd5b82018360208201111561008a57600080fd5b803590602001918460018302840111640100000000831117156100ac57600080fd5b91908080601f016020809104026020016040519081016040528093929190818152602001838380828437600081840152601f19601f8201169050808301925050505050505091929192905050506101dd565b005b6101c36004803603604081101561011657600080fd5b81019080803590602001909291908035906020019064010000000081111561013d57600080fd5b82018360208201111561014f57600080fd5b8035906020019184600183028401116401000000008311171561017157600080fd5b91908080601f016020809104026020016040519081016040528093929190818152602001838380828437600081840152601f19601f820116905080830192505050505050509192919290505050610208565b604051808215151515815260200191505060405180910390f35b806000808481526020019081526020016000209080519060200190610203929190610321565b505050565b6000816040516020018082805190602001908083835b60208310610241578051825260208201915060208101905060208303925061021e565b6001836020036101000a0380198251168184511680821785525050505050509050019150506040516020818303038152906040528051906020012060008085815260200190815260200160002060405160200180828054600181600116156101000203166002900480156102ec5780601f106102ca5761010080835404028352918201916102ec565b820191906000526020600020905b8154815290600101906020018083116102d8575b5050915050604051602081830303815290604052805190602001201415610316576001905061031b565b600090505b92915050565b828054600181600116156101000203166002900490600052602060002090601f016020900481019282601f1061036257805160ff1916838001178555610390565b82800160010185558215610390579182015b8281111561038f578251825591602001919060010190610374565b5b50905061039d91906103a1565b5090565b6103c391905b808211156103bf5760008160009055506001016103a7565b5090565b9056fea165627a7a72305820d7e8a290d34e81b6257bf023ce9fafdb829708d362bc2ee95aea304d0c839cf50029",
  "source": "pragma solidity >=0.4.25 <0.7.0;\n\n\ncontract Kyc {\n\n    mapping(uint => string) documents;\n\n\n    function storeDocument(uint id, string memory docHash) public {\n\n        documents[id] = docHash;\n    }\n\n    function verifyDocument(uint id, string memory hashToVerify) view public returns (bool){\n        if(keccak256(abi.encodePacked(documents[id])) == keccak256(abi.encodePacked(hashToVerify))) {\n            return true;\n        }\n        else{\n            return false;\n        }\n     }\n}\n",
  "sourcePath": "/home/tushar/Downloads/projects/Ethereum Practice/Bank_KYC/contracts/Kyc.sol",
  "compiler": {
    "name": "solc",
    "version": "0.5.8+commit.23d335f2.Emscripten.clang"
  },
  "schemaVersion": "3.0.16",
  "updatedAt": "2020-04-11T13:35:43.186Z",
  "devdoc": {
    "methods": {}
  },
  "userdoc": {
    "methods": {}
  }
}